{
  "_format": "hh-sol-artifact-1",
  "contractName": "OHMNavReporter",
  "sourceName": "contracts/strategies/OHMNavReporter.sol",
  "abi": [
    {
      "anonymous": false,
      "inputs": [
        {
          "indexed": false,
          "internalType": "address",
          "name": "previousAdmin",
          "type": "address"
        },
        {
          "indexed": false,
          "internalType": "address",
          "name": "newAdmin",
          "type": "address"
        }
      ],
      "name": "AdminChanged",
      "type": "event"
    },
    {
      "anonymous": false,
      "inputs": [
        {
          "indexed": true,
          "internalType": "address",
          "name": "beacon",
          "type": "address"
        }
      ],
      "name": "BeaconUpgraded",
      "type": "event"
    },
    {
      "anonymous": false,
      "inputs": [
        {
          "indexed": false,
          "internalType": "uint256",
          "name": "amount",
          "type": "uint256"
        }
      ],
      "name": "ClaimReward",
      "type": "event"
    },
    {
      "anonymous": false,
      "inputs": [
        {
          "indexed": true,
          "internalType": "address",
          "name": "token",
          "type": "address"
        },
        {
          "indexed": false,
          "internalType": "uint256",
          "name": "amount",
          "type": "uint256"
        },
        {
          "indexed": false,
          "internalType": "uint256",
          "name": "usdcAmount",
          "type": "uint256"
        }
      ],
      "name": "ClaimRewardToken",
      "type": "event"
    },
    {
      "anonymous": false,
      "inputs": [
        {
          "indexed": false,
          "internalType": "uint8",
          "name": "version",
          "type": "uint8"
        }
      ],
      "name": "Initialized",
      "type": "event"
    },
    {
      "anonymous": false,
      "inputs": [
        {
          "indexed": false,
          "internalType": "uint256",
          "name": "amount",
          "type": "uint256"
        }
      ],
      "name": "Invest",
      "type": "event"
    },
    {
      "anonymous": false,
      "inputs": [
        {
          "indexed": true,
          "internalType": "address",
          "name": "token",
          "type": "address"
        },
        {
          "indexed": false,
          "internalType": "uint256",
          "name": "amount",
          "type": "uint256"
        },
        {
          "indexed": false,
          "internalType": "uint256",
          "name": "usdcAmount",
          "type": "uint256"
        }
      ],
      "name": "InvestToken",
      "type": "event"
    },
    {
      "anonymous": false,
      "inputs": [
        {
          "indexed": false,
          "internalType": "uint256",
          "name": "from",
          "type": "uint256"
        },
        {
          "indexed": false,
          "internalType": "uint256",
          "name": "to",
          "type": "uint256"
        }
      ],
      "name": "NetAssetValueUpdated",
      "type": "event"
    },
    {
      "anonymous": false,
      "inputs": [
        {
          "indexed": false,
          "internalType": "uint256",
          "name": "nav",
          "type": "uint256"
        },
        {
          "indexed": false,
          "internalType": "int256",
          "name": "revenue",
          "type": "int256"
        },
        {
          "indexed": false,
          "internalType": "uint256",
          "name": "payout",
          "type": "uint256"
        }
      ],
      "name": "PayoutReward",
      "type": "event"
    },
    {
      "anonymous": false,
      "inputs": [
        {
          "indexed": false,
          "internalType": "address",
          "name": "value",
          "type": "address"
        }
      ],
      "name": "PortfolioManagerUpdated",
      "type": "event"
    },
    {
      "anonymous": false,
      "inputs": [
        {
          "indexed": false,
          "internalType": "uint256",
          "name": "value",
          "type": "uint256"
        }
      ],
      "name": "ReinvestRateUpdated",
      "type": "event"
    },
    {
      "anonymous": false,
      "inputs": [
        {
          "indexed": false,
          "internalType": "address",
          "name": "value",
          "type": "address"
        }
      ],
      "name": "ReinvestStrategyUpdated",
      "type": "event"
    },
    {
      "anonymous": false,
      "inputs": [
        {
          "indexed": true,
          "internalType": "bytes32",
          "name": "role",
          "type": "bytes32"
        },
        {
          "indexed": true,
          "internalType": "bytes32",
          "name": "previousAdminRole",
          "type": "bytes32"
        },
        {
          "indexed": true,
          "internalType": "bytes32",
          "name": "newAdminRole",
          "type": "bytes32"
        }
      ],
      "name": "RoleAdminChanged",
      "type": "event"
    },
    {
      "anonymous": false,
      "inputs": [
        {
          "indexed": true,
          "internalType": "bytes32",
          "name": "role",
          "type": "bytes32"
        },
        {
          "indexed": true,
          "internalType": "address",
          "name": "account",
          "type": "address"
        },
        {
          "indexed": true,
          "internalType": "address",
          "name": "sender",
          "type": "address"
        }
      ],
      "name": "RoleGranted",
      "type": "event"
    },
    {
      "anonymous": false,
      "inputs": [
        {
          "indexed": true,
          "internalType": "bytes32",
          "name": "role",
          "type": "bytes32"
        },
        {
          "indexed": true,
          "internalType": "address",
          "name": "account",
          "type": "address"
        },
        {
          "indexed": true,
          "internalType": "address",
          "name": "sender",
          "type": "address"
        }
      ],
      "name": "RoleRevoked",
      "type": "event"
    },
    {
      "anonymous": false,
      "inputs": [
        {
          "indexed": true,
          "internalType": "address",
          "name": "implementation",
          "type": "address"
        }
      ],
      "name": "Upgraded",
      "type": "event"
    },
    {
      "anonymous": false,
      "inputs": [
        {
          "indexed": true,
          "internalType": "address",
          "name": "token",
          "type": "address"
        },
        {
          "indexed": false,
          "internalType": "uint256",
          "name": "amount",
          "type": "uint256"
        }
      ],
      "name": "Withdraw",
      "type": "event"
    },
    {
      "inputs": [],
      "name": "DEFAULT_ADMIN_ROLE",
      "outputs": [
        {
          "internalType": "bytes32",
          "name": "",
          "type": "bytes32"
        }
      ],
      "stateMutability": "view",
      "type": "function"
    },
    {
      "inputs": [],
      "name": "MANAGER_ROLE",
      "outputs": [
        {
          "internalType": "bytes32",
          "name": "",
          "type": "bytes32"
        }
      ],
      "stateMutability": "view",
      "type": "function"
    },
    {
      "inputs": [],
      "name": "PORTFOLIO_MANAGER",
      "outputs": [
        {
          "internalType": "bytes32",
          "name": "",
          "type": "bytes32"
        }
      ],
      "stateMutability": "view",
      "type": "function"
    },
    {
      "inputs": [],
      "name": "balance",
      "outputs": [
        {
          "internalType": "uint256",
          "name": "",
          "type": "uint256"
        }
      ],
      "stateMutability": "view",
      "type": "function"
    },
    {
      "inputs": [
        {
          "internalType": "address",
          "name": "to_",
          "type": "address"
        }
      ],
      "name": "claimAndReinvest",
      "outputs": [
        {
          "internalType": "uint256",
          "name": "",
          "type": "uint256"
        }
      ],
      "stateMutability": "nonpayable",
      "type": "function"
    },
    {
      "inputs": [
        {
          "internalType": "bytes32",
          "name": "role",
          "type": "bytes32"
        }
      ],
      "name": "getRoleAdmin",
      "outputs": [
        {
          "internalType": "bytes32",
          "name": "",
          "type": "bytes32"
        }
      ],
      "stateMutability": "view",
      "type": "function"
    },
    {
      "inputs": [
        {
          "internalType": "bytes32",
          "name": "role",
          "type": "bytes32"
        },
        {
          "internalType": "address",
          "name": "account",
          "type": "address"
        }
      ],
      "name": "grantRole",
      "outputs": [],
      "stateMutability": "nonpayable",
      "type": "function"
    },
    {
      "inputs": [
        {
          "internalType": "bytes32",
          "name": "role",
          "type": "bytes32"
        },
        {
          "internalType": "address",
          "name": "account",
          "type": "address"
        }
      ],
      "name": "hasRole",
      "outputs": [
        {
          "internalType": "bool",
          "name": "",
          "type": "bool"
        }
      ],
      "stateMutability": "view",
      "type": "function"
    },
    {
      "inputs": [],
      "name": "initialize",
      "outputs": [],
      "stateMutability": "nonpayable",
      "type": "function"
    },
    {
      "inputs": [
        {
          "internalType": "address",
          "name": "token_",
          "type": "address"
        },
        {
          "internalType": "uint256",
          "name": "amount_",
          "type": "uint256"
        }
      ],
      "name": "invest",
      "outputs": [
        {
          "internalType": "uint256",
          "name": "usdcAmount_",
          "type": "uint256"
        }
      ],
      "stateMutability": "nonpayable",
      "type": "function"
    },
    {
      "inputs": [],
      "name": "netAssetValue",
      "outputs": [
        {
          "internalType": "uint256",
          "name": "",
          "type": "uint256"
        }
      ],
      "stateMutability": "view",
      "type": "function"
    },
    {
      "inputs": [],
      "name": "portfolioManager",
      "outputs": [
        {
          "internalType": "address",
          "name": "",
          "type": "address"
        }
      ],
      "stateMutability": "view",
      "type": "function"
    },
    {
      "inputs": [],
      "name": "proxiableUUID",
      "outputs": [
        {
          "internalType": "bytes32",
          "name": "",
          "type": "bytes32"
        }
      ],
      "stateMutability": "view",
      "type": "function"
    },
    {
      "inputs": [],
      "name": "reinvestRate",
      "outputs": [
        {
          "internalType": "uint256",
          "name": "",
          "type": "uint256"
        }
      ],
      "stateMutability": "view",
      "type": "function"
    },
    {
      "inputs": [
        {
          "internalType": "bytes32",
          "name": "role",
          "type": "bytes32"
        },
        {
          "internalType": "address",
          "name": "account",
          "type": "address"
        }
      ],
      "name": "renounceRole",
      "outputs": [],
      "stateMutability": "nonpayable",
      "type": "function"
    },
    {
      "inputs": [
        {
          "internalType": "bytes32",
          "name": "role",
          "type": "bytes32"
        },
        {
          "internalType": "address",
          "name": "account",
          "type": "address"
        }
      ],
      "name": "revokeRole",
      "outputs": [],
      "stateMutability": "nonpayable",
      "type": "function"
    },
    {
      "inputs": [
        {
          "internalType": "address",
          "name": "value_",
          "type": "address"
        }
      ],
      "name": "setPortfolioManager",
      "outputs": [],
      "stateMutability": "nonpayable",
      "type": "function"
    },
    {
      "inputs": [
        {
          "internalType": "uint256",
          "name": "rate_",
          "type": "uint256"
        }
      ],
      "name": "setReinvestRate",
      "outputs": [],
      "stateMutability": "nonpayable",
      "type": "function"
    },
    {
      "inputs": [
        {
          "internalType": "bytes4",
          "name": "interfaceId",
          "type": "bytes4"
        }
      ],
      "name": "supportsInterface",
      "outputs": [
        {
          "internalType": "bool",
          "name": "",
          "type": "bool"
        }
      ],
      "stateMutability": "view",
      "type": "function"
    },
    {
      "inputs": [
        {
          "internalType": "uint256",
          "name": "balance_",
          "type": "uint256"
        }
      ],
      "name": "updateBalance",
      "outputs": [],
      "stateMutability": "nonpayable",
      "type": "function"
    },
    {
      "inputs": [
        {
          "internalType": "address",
          "name": "newImplementation",
          "type": "address"
        }
      ],
      "name": "upgradeTo",
      "outputs": [],
      "stateMutability": "nonpayable",
      "type": "function"
    },
    {
      "inputs": [
        {
          "internalType": "address",
          "name": "newImplementation",
          "type": "address"
        },
        {
          "internalType": "bytes",
          "name": "data",
          "type": "bytes"
        }
      ],
      "name": "upgradeToAndCall",
      "outputs": [],
      "stateMutability": "payable",
      "type": "function"
    },
    {
      "inputs": [],
      "name": "usdc",
      "outputs": [
        {
          "internalType": "contract IERC20",
          "name": "",
          "type": "address"
        }
      ],
      "stateMutability": "view",
      "type": "function"
    },
    {
      "inputs": [
        {
          "internalType": "address",
          "name": "token_",
          "type": "address"
        },
        {
          "internalType": "uint256",
          "name": "amount_",
          "type": "uint256"
        }
      ],
      "name": "withdraw",
      "outputs": [
        {
          "internalType": "uint256",
          "name": "",
          "type": "uint256"
        }
      ],
      "stateMutability": "nonpayable",
      "type": "function"
    }
  ],
  "bytecode": "0x60a06040523060805234801561001457600080fd5b50608051611de161004c6000396000818161059b015281816105db0152818161067a015281816106ba01526107490152611de16000f3fe60806040526004361061014b5760003560e01c806391d14854116100b6578063b9b8c2461161006f578063b9b8c2461461039f578063ba7b37d4146103bf578063d2699e0d146103df578063d547741f146103f6578063ec87621c14610416578063f3fef3a31461043857600080fd5b806391d14854146102fe578063a217fddf1461031e578063a3673b3814610333578063a440b21a14610348578063b241d69314610368578063b69ef8a81461038857600080fd5b80633e413bee116101085780633e413bee146102455780634f1ef2861461027e57806352d1902d14610291578063620b75df146102a65780637d5f5802146102c75780638129fc1c146102e957600080fd5b806301ffc9a7146101505780630a24b6ce14610185578063248a9ca3146101a75780632f2ff15d146101e557806336568abe146102055780633659cfe614610225575b600080fd5b34801561015c57600080fd5b5061017061016b36600461178c565b610458565b60405190151581526020015b60405180910390f35b34801561019157600080fd5b506101a56101a03660046117b6565b61048f565b005b3480156101b357600080fd5b506101d76101c23660046117b6565b60009081526065602052604090206001015490565b60405190815260200161017c565b3480156101f157600080fd5b506101a56102003660046117e6565b6104e4565b34801561021157600080fd5b506101a56102203660046117e6565b61050e565b34801561023157600080fd5b506101a5610240366004611812565b610591565b34801561025157600080fd5b5061012e54610266906001600160a01b031681565b6040516001600160a01b03909116815260200161017c565b6101a561028c366004611843565b610670565b34801561029d57600080fd5b506101d761073c565b3480156102b257600080fd5b5061012d54610266906001600160a01b031681565b3480156102d357600080fd5b506101d7600080516020611d2583398151915281565b3480156102f557600080fd5b506101a56107ef565b34801561030a57600080fd5b506101706103193660046117e6565b6108df565b34801561032a57600080fd5b506101d7600081565b34801561033f57600080fd5b506101d761090a565b34801561035457600080fd5b506101a5610363366004611812565b610b1d565b34801561037457600080fd5b506101d7610383366004611812565b610bc8565b34801561039457600080fd5b506101d76101625481565b3480156103ab57600080fd5b506101d76103ba366004611905565b610c5b565b3480156103cb57600080fd5b506101a56103da3660046117b6565b610d57565b3480156103eb57600080fd5b506101d761012f5481565b34801561040257600080fd5b506101a56104113660046117e6565b610dc7565b34801561042257600080fd5b506101d7600080516020611d6583398151915281565b34801561044457600080fd5b506101d7610453366004611905565b610dec565b60006001600160e01b03198216637965db0b60e01b148061048957506301ffc9a760e01b6001600160e01b03198316145b92915050565b6104a7600080516020611d6583398151915233610e88565b61012f8190556040518181527ff66c6e55aea47d9c7957c0160d85b0051e87132ff35c1d59625b8a4252834465906020015b60405180910390a150565b6000828152606560205260409020600101546104ff81610eec565b6105098383610ef6565b505050565b6001600160a01b03811633146105835760405162461bcd60e51b815260206004820152602f60248201527f416363657373436f6e74726f6c3a2063616e206f6e6c792072656e6f756e636560448201526e103937b632b9903337b91039b2b63360891b60648201526084015b60405180910390fd5b61058d8282610f7c565b5050565b6001600160a01b037f00000000000000000000000000000000000000000000000000000000000000001630036105d95760405162461bcd60e51b815260040161057a9061192f565b7f00000000000000000000000000000000000000000000000000000000000000006001600160a01b0316610622600080516020611d45833981519152546001600160a01b031690565b6001600160a01b0316146106485760405162461bcd60e51b815260040161057a9061197b565b61065181610fe3565b6040805160008082526020820190925261066d91839190610fee565b50565b6001600160a01b037f00000000000000000000000000000000000000000000000000000000000000001630036106b85760405162461bcd60e51b815260040161057a9061192f565b7f00000000000000000000000000000000000000000000000000000000000000006001600160a01b0316610701600080516020611d45833981519152546001600160a01b031690565b6001600160a01b0316146107275760405162461bcd60e51b815260040161057a9061197b565b61073082610fe3565b61058d82826001610fee565b6000306001600160a01b037f000000000000000000000000000000000000000000000000000000000000000016146107dc5760405162461bcd60e51b815260206004820152603860248201527f555550535570677261646561626c653a206d757374206e6f742062652063616c60448201527f6c6564207468726f7567682064656c656761746563616c6c0000000000000000606482015260840161057a565b50600080516020611d4583398151915290565b600054610100900460ff161580801561080f5750600054600160ff909116105b806108295750303b158015610829575060005460ff166001145b6108455760405162461bcd60e51b815260040161057a906119c7565b6000805460ff191660011790558015610868576000805461ff0019166101001790555b61089d73e8c7574f7355920b254a91658d04074e1c0fdef4732791bca1f2de4661ed88a30c99a7a9449aa84174610bb8611159565b801561066d576000805461ff0019169055604051600181527f7f26b83ff96e1f2b6a682f133852f6798a09c465da95921460cefb3847402498906020016104d9565b60009182526065602090815260408084206001600160a01b0393909316845291905290205460ff1690565b6000610b18610a126101625473c08f70c26ab8c659eaf259c51a0f7ae22758c6ac6001600160a01b03166350d25bcd6040518163ffffffff1660e01b8152600401602060405180830381865afa158015610968573d6000803e3d6000fd5b505050506040513d601f19601f8201168201806040525081019061098c9190611a15565b73c08f70c26ab8c659eaf259c51a0f7ae22758c6ac6001600160a01b031663313ce5676040518163ffffffff1660e01b8152600401602060405180830381865afa1580156109de573d6000803e3d6000fd5b505050506040513d601f19601f82011682018060405250810190610a029190611a2e565b610a0d90600a611b4b565b611280565b734ce90f28c6357a7d3f47d680723d18af3684cd006001600160a01b03166350d25bcd6040518163ffffffff1660e01b8152600401602060405180830381865afa158015610a64573d6000803e3d6000fd5b505050506040513d601f19601f82011682018060405250810190610a889190611a15565b734ce90f28c6357a7d3f47d680723d18af3684cd006001600160a01b031663313ce5676040518163ffffffff1660e01b8152600401602060405180830381865afa158015610ada573d6000803e3d6000fd5b505050506040513d601f19601f82011682018060405250810190610afe9190611a2e565b610b0990600a611b4b565b610a0d9064e8d4a51000611b5a565b905090565b610b28600033610e88565b6001600160a01b038116610b3b57600080fd5b61012d54610b6190600080516020611d25833981519152906001600160a01b0316610dc7565b610b79600080516020611d25833981519152826104e4565b61012d80546001600160a01b0319166001600160a01b0383169081179091556040519081527ff7b449fcd5cfb7379dcd34cb69428dd9f882033b15be33d83b42d91daa28eeb7906020016104d9565b6000610be2600080516020611d25833981519152336108df565b610c185760405162461bcd60e51b81526020600482015260076024820152666f6e6c7920504d60c81b604482015260640161057a565b60007f92ceb12dcec339cfdfc12e6592561efc27b52a33ad2d0c84c9c8d0985e48d22981604051610c4b91815260200190565b60405180910390a190505b919050565b6040516323b872dd60e01b8152336004820152306024820152604481018290526000906001600160a01b038416906323b872dd906064016020604051808303816000875af1158015610cb1573d6000803e3d6000fd5b505050506040513d601f19601f82011682018060405250810190610cd59190611b79565b50506040516000808252907fa09b7ae452b7bffb9e204c3a016e80caeecf46f554d112644f36fa114dac6ffa9060200160405180910390a160408051838152602081018390526001600160a01b038516917ff3f14e518fb1b31573d56da5138e0d83bcdfe1cbe2d5928ac1a565684d76a900910160405180910390a292915050565b610d6f600080516020611d6583398151915233610e88565b6000610d7961090a565b61016283905590507f4bc6038d4c849b8e34f3ae518fa8035cd1272ebb48379451b1a1d3e97a51fcb881610dab61090a565b6040805192835260208301919091520160405180910390a15050565b600082815260656020526040902060010154610de281610eec565b6105098383610f7c565b6000610e06600080516020611d25833981519152336108df565b610e3c5760405162461bcd60e51b81526020600482015260076024820152666f6e6c7920504d60c81b604482015260640161057a565b6000836001600160a01b03167f884edad9ce6fa2440d8a54cc123490eb96d2768479d49ff9c7366125a942436482604051610e7991815260200190565b60405180910390a29392505050565b610e9282826108df565b61058d57610eaa816001600160a01b03166014611335565b610eb5836020611335565b604051602001610ec6929190611bbf565b60408051601f198184030181529082905262461bcd60e51b825261057a91600401611c34565b61066d8133610e88565b610f0082826108df565b61058d5760008281526065602090815260408083206001600160a01b03851684529091529020805460ff19166001179055610f383390565b6001600160a01b0316816001600160a01b0316837f2f8788117e7eff1d82e926ec794901d17c78024a50270940304540a733656f0d60405160405180910390a45050565b610f8682826108df565b1561058d5760008281526065602090815260408083206001600160a01b0385168085529252808320805460ff1916905551339285917ff6391f5c32d9c69d2a47ea670b442974b53935d1edc7fd64eb21e047a839171b9190a45050565b61066d600033610e88565b7f4910fdfa16fed3260ed0e7147f7cc6da11a60208b5b9406d12a635614ffd91435460ff161561102157610509836114d1565b826001600160a01b03166352d1902d6040518163ffffffff1660e01b8152600401602060405180830381865afa92505050801561107b575060408051601f3d908101601f1916820190925261107891810190611a15565b60015b6110de5760405162461bcd60e51b815260206004820152602e60248201527f45524331393637557067726164653a206e657720696d706c656d656e7461746960448201526d6f6e206973206e6f74205555505360901b606482015260840161057a565b600080516020611d45833981519152811461114d5760405162461bcd60e51b815260206004820152602960248201527f45524331393637557067726164653a20756e737570706f727465642070726f786044820152681a58589b195555525160ba1b606482015260840161057a565b5061050983838361156d565b600054610100900460ff16158080156111795750600054600160ff909116105b806111935750303b158015611193575060005460ff166001145b6111af5760405162461bcd60e51b815260040161057a906119c7565b6000805460ff1916600117905580156111d2576000805461ff0019166101001790555b6111da611592565b61012d80546001600160a01b0319166001600160a01b03861690811790915561121290600080516020611d25833981519152906104e4565b61012e80546001600160a01b0319166001600160a01b03851617905561012f829055801561127a576000805461ff0019169055604051600181527f7f26b83ff96e1f2b6a682f133852f6798a09c465da95921460cefb38474024989060200160405180910390a15b50505050565b60008080600019858709858702925082811083820303915050806000036112ba578382816112b0576112b0611c67565b049250505061132e565b8084116112c657600080fd5b600084868809851960019081018716968790049682860381900495909211909303600082900391909104909201919091029190911760038402600290811880860282030280860282030280860282030280860282030280860282030280860290910302029150505b9392505050565b60606000611344836002611b5a565b61134f906002611c7d565b67ffffffffffffffff8111156113675761136761182d565b6040519080825280601f01601f191660200182016040528015611391576020820181803683370190505b509050600360fc1b816000815181106113ac576113ac611c90565b60200101906001600160f81b031916908160001a905350600f60fb1b816001815181106113db576113db611c90565b60200101906001600160f81b031916908160001a90535060006113ff846002611b5a565b61140a906001611c7d565b90505b6001811115611482576f181899199a1a9b1b9c1cb0b131b232b360811b85600f166010811061143e5761143e611c90565b1a60f81b82828151811061145457611454611c90565b60200101906001600160f81b031916908160001a90535060049490941c9361147b81611ca6565b905061140d565b50831561132e5760405162461bcd60e51b815260206004820181905260248201527f537472696e67733a20686578206c656e67746820696e73756666696369656e74604482015260640161057a565b6001600160a01b0381163b61153e5760405162461bcd60e51b815260206004820152602d60248201527f455243313936373a206e657720696d706c656d656e746174696f6e206973206e60448201526c1bdd08184818dbdb9d1c9858dd609a1b606482015260840161057a565b600080516020611d4583398151915280546001600160a01b0319166001600160a01b0392909216919091179055565b611576836115ee565b6000825111806115835750805b156105095761127a838361162e565b600054610100900460ff166115b95760405162461bcd60e51b815260040161057a90611cbd565b6115c1611722565b6115c9611722565b6115d4600033611749565b6115ec600080516020611d6583398151915233611749565b565b6115f7816114d1565b6040516001600160a01b038216907fbc7cd75a20ee27fd9adebab32041f755214dbc6bffa90cc0225b39da2e5c2d3b90600090a250565b60606001600160a01b0383163b6116965760405162461bcd60e51b815260206004820152602660248201527f416464726573733a2064656c65676174652063616c6c20746f206e6f6e2d636f6044820152651b9d1c9858dd60d21b606482015260840161057a565b600080846001600160a01b0316846040516116b19190611d08565b600060405180830381855af49150503d80600081146116ec576040519150601f19603f3d011682016040523d82523d6000602084013e6116f1565b606091505b50915091506117198282604051806060016040528060278152602001611d8560279139611753565b95945050505050565b600054610100900460ff166115ec5760405162461bcd60e51b815260040161057a90611cbd565b61058d8282610ef6565b6060831561176257508161132e565b8251156117725782518084602001fd5b8160405162461bcd60e51b815260040161057a9190611c34565b60006020828403121561179e57600080fd5b81356001600160e01b03198116811461132e57600080fd5b6000602082840312156117c857600080fd5b5035919050565b80356001600160a01b0381168114610c5657600080fd5b600080604083850312156117f957600080fd5b82359150611809602084016117cf565b90509250929050565b60006020828403121561182457600080fd5b61132e826117cf565b634e487b7160e01b600052604160045260246000fd5b6000806040838503121561185657600080fd5b61185f836117cf565b9150602083013567ffffffffffffffff8082111561187c57600080fd5b818501915085601f83011261189057600080fd5b8135818111156118a2576118a261182d565b604051601f8201601f19908116603f011681019083821181831017156118ca576118ca61182d565b816040528281528860208487010111156118e357600080fd5b8260208601602083013760006020848301015280955050505050509250929050565b6000806040838503121561191857600080fd5b611921836117cf565b946020939093013593505050565b6020808252602c908201527f46756e6374696f6e206d7573742062652063616c6c6564207468726f7567682060408201526b19195b1959d85d1958d85b1b60a21b606082015260800190565b6020808252602c908201527f46756e6374696f6e206d7573742062652063616c6c6564207468726f7567682060408201526b6163746976652070726f787960a01b606082015260800190565b6020808252602e908201527f496e697469616c697a61626c653a20636f6e747261637420697320616c72656160408201526d191e481a5b9a5d1a585b1a5e995960921b606082015260800190565b600060208284031215611a2757600080fd5b5051919050565b600060208284031215611a4057600080fd5b815160ff8116811461132e57600080fd5b634e487b7160e01b600052601160045260246000fd5b600181815b80851115611aa2578160001904821115611a8857611a88611a51565b80851615611a9557918102915b93841c9390800290611a6c565b509250929050565b600082611ab957506001610489565b81611ac657506000610489565b8160018114611adc5760028114611ae657611b02565b6001915050610489565b60ff841115611af757611af7611a51565b50506001821b610489565b5060208310610133831016604e8410600b8410161715611b25575081810a610489565b611b2f8383611a67565b8060001904821115611b4357611b43611a51565b029392505050565b600061132e60ff841683611aaa565b6000816000190483118215151615611b7457611b74611a51565b500290565b600060208284031215611b8b57600080fd5b8151801515811461132e57600080fd5b60005b83811015611bb6578181015183820152602001611b9e565b50506000910152565b7f416363657373436f6e74726f6c3a206163636f756e7420000000000000000000815260008351611bf7816017850160208801611b9b565b7001034b99036b4b9b9b4b733903937b6329607d1b6017918401918201528351611c28816028840160208801611b9b565b01602801949350505050565b6020815260008251806020840152611c53816040850160208701611b9b565b601f01601f19169190910160400192915050565b634e487b7160e01b600052601260045260246000fd5b8082018082111561048957610489611a51565b634e487b7160e01b600052603260045260246000fd5b600081611cb557611cb5611a51565b506000190190565b6020808252602b908201527f496e697469616c697a61626c653a20636f6e7472616374206973206e6f74206960408201526a6e697469616c697a696e6760a81b606082015260800190565b60008251611d1a818460208701611b9b565b919091019291505056fe90c2aa7471c04182221f68e80c07ab1e5946e4c63f8693e14ca40385d529f051360894a13ba1a3210667c828492db98dca3e2076cc3735a920a3ca505d382bbc241ecf16d79d0f8dbfb92cbc07fe17840425976cf0667f022fe9877caa831b08416464726573733a206c6f772d6c6576656c2064656c65676174652063616c6c206661696c6564a2646970667358221220afef7546edd3bd496297679686fac73c66e0f011e2506cdf1da6a13d0364947064736f6c63430008100033",
  "linkReferences": {},
  "deployedLinkReferences": {}
}